{
  "contractName": "CappaTokenSale",
  "abi": [
    {
      "inputs": [
        {
          "internalType": "uint256",
          "name": "rate",
          "type": "uint256"
        },
        {
          "internalType": "address payable",
          "name": "wallet",
          "type": "address"
        },
        {
          "internalType": "contract IERC20",
          "name": "token",
          "type": "address"
        },
        {
          "internalType": "contract KycContract",
          "name": "_kyc",
          "type": "address"
        }
      ],
      "stateMutability": "nonpayable",
      "type": "constructor"
    },
    {
      "anonymous": false,
      "inputs": [
        {
          "indexed": true,
          "internalType": "address",
          "name": "purchaser",
          "type": "address"
        },
        {
          "indexed": true,
          "internalType": "address",
          "name": "beneficiary",
          "type": "address"
        },
        {
          "indexed": false,
          "internalType": "uint256",
          "name": "value",
          "type": "uint256"
        },
        {
          "indexed": false,
          "internalType": "uint256",
          "name": "amount",
          "type": "uint256"
        }
      ],
      "name": "TokensPurchased",
      "type": "event"
    },
    {
      "inputs": [
        {
          "internalType": "address",
          "name": "beneficiary",
          "type": "address"
        }
      ],
      "name": "buyTokens",
      "outputs": [],
      "stateMutability": "payable",
      "type": "function",
      "payable": true
    },
    {
      "inputs": [],
      "name": "rateOfTokens",
      "outputs": [
        {
          "internalType": "uint256",
          "name": "",
          "type": "uint256"
        }
      ],
      "stateMutability": "view",
      "type": "function",
      "constant": true
    },
    {
      "inputs": [],
      "name": "token",
      "outputs": [
        {
          "internalType": "contract IERC20",
          "name": "",
          "type": "address"
        }
      ],
      "stateMutability": "view",
      "type": "function",
      "constant": true
    },
    {
      "inputs": [],
      "name": "wallet",
      "outputs": [
        {
          "internalType": "address payable",
          "name": "",
          "type": "address"
        }
      ],
      "stateMutability": "view",
      "type": "function",
      "constant": true
    },
    {
      "inputs": [],
      "name": "weiRaised",
      "outputs": [
        {
          "internalType": "uint256",
          "name": "",
          "type": "uint256"
        }
      ],
      "stateMutability": "view",
      "type": "function",
      "constant": true
    },
    {
      "stateMutability": "payable",
      "type": "receive",
      "payable": true
    }
  ],
  "bytecode": "0x60806040523480156200001157600080fd5b5060405162001607380380620016078339818101604052810190620000379190620002a1565b83838360016000819055506000831162000088576040517f08c379a00000000000000000000000000000000000000000000000000000000081526004016200007f90620003aa565b60405180910390fd5b600073ffffffffffffffffffffffffffffffffffffffff168273ffffffffffffffffffffffffffffffffffffffff161415620000fb576040517f08c379a0000000000000000000000000000000000000000000000000000000008152600401620000f290620003cc565b60405180910390fd5b600073ffffffffffffffffffffffffffffffffffffffff168173ffffffffffffffffffffffffffffffffffffffff1614156200016e576040517f08c379a0000000000000000000000000000000000000000000000000000000008152600401620001659062000388565b60405180910390fd5b8260038190555081600260006101000a81548173ffffffffffffffffffffffffffffffffffffffff021916908373ffffffffffffffffffffffffffffffffffffffff16021790555080600160006101000a81548173ffffffffffffffffffffffffffffffffffffffff021916908373ffffffffffffffffffffffffffffffffffffffff16021790555050505080600560006101000a81548173ffffffffffffffffffffffffffffffffffffffff021916908373ffffffffffffffffffffffffffffffffffffffff16021790555050505050620005ad565b600081519050620002568162000545565b92915050565b6000815190506200026d816200055f565b92915050565b600081519050620002848162000579565b92915050565b6000815190506200029b8162000593565b92915050565b60008060008060808587031215620002be57620002bd62000479565b5b6000620002ce878288016200028a565b9450506020620002e18782880162000245565b9350506040620002f4878288016200025c565b9250506060620003078782880162000273565b91505092959194509250565b600062000322602483620003ee565b91506200032f826200047e565b604082019050919050565b600062000349601483620003ee565b91506200035682620004cd565b602082019050919050565b600062000370602583620003ee565b91506200037d82620004f6565b604082019050919050565b60006020820190508181036000830152620003a38162000313565b9050919050565b60006020820190508181036000830152620003c5816200033a565b9050919050565b60006020820190508181036000830152620003e78162000361565b9050919050565b600082825260208201905092915050565b60006200040c826200044f565b9050919050565b600062000420826200044f565b9050919050565b60006200043482620003ff565b9050919050565b60006200044882620003ff565b9050919050565b600073ffffffffffffffffffffffffffffffffffffffff82169050919050565b6000819050919050565b600080fd5b7f43726f776473616c653a20746f6b656e20697320746865207a65726f2061646460008201527f7265737300000000000000000000000000000000000000000000000000000000602082015250565b7f43726f776473616c653a20726174652069732030000000000000000000000000600082015250565b7f43726f776473616c653a2077616c6c657420697320746865207a65726f20616460008201527f6472657373000000000000000000000000000000000000000000000000000000602082015250565b620005508162000413565b81146200055c57600080fd5b50565b6200056a8162000427565b81146200057657600080fd5b50565b62000584816200043b565b81146200059057600080fd5b50565b6200059e816200046f565b8114620005aa57600080fd5b50565b61104a80620005bd6000396000f3fe60806040526004361061004e5760003560e01c80632dff91b91461006a5780634042b66f14610095578063521eb273146100c0578063ec8ac4d8146100eb578063fc0c546a1461010757610065565b366100655761006361005e610132565b61013a565b005b600080fd5b34801561007657600080fd5b5061007f610260565b60405161008c9190610c39565b60405180910390f35b3480156100a157600080fd5b506100aa61026a565b6040516100b79190610c39565b60405180910390f35b3480156100cc57600080fd5b506100d5610274565b6040516100e29190610ad8565b60405180910390f35b610105600480360381019061010091906108b1565b61013a565b005b34801561011357600080fd5b5061011c61029e565b6040516101299190610b1c565b60405180910390f35b600033905090565b60026000541415610180576040517f08c379a000000000000000000000000000000000000000000000000000000000815260040161017790610bf9565b60405180910390fd5b6002600081905550600034905061019782826102c8565b60006101a2826103c0565b90506101b9826004546103de90919063ffffffff16565b6004819055506101c983826103f4565b8273ffffffffffffffffffffffffffffffffffffffff166101e8610132565b73ffffffffffffffffffffffffffffffffffffffff167f6faf93231a456e552dbc9961f58d9713ee4f2e69d15f1975b050ef0911053a7b848460405161022f929190610c54565b60405180910390a36102418383610402565b610249610406565b6102538383610471565b5050600160008190555050565b6000600354905090565b6000600454905090565b6000600260009054906101000a900473ffffffffffffffffffffffffffffffffffffffff16905090565b6000600160009054906101000a900473ffffffffffffffffffffffffffffffffffffffff16905090565b6102d28282610475565b600560009054906101000a900473ffffffffffffffffffffffffffffffffffffffff1673ffffffffffffffffffffffffffffffffffffffff1663df235fe4836040518263ffffffff1660e01b815260040161032d9190610abd565b60206040518083038186803b15801561034557600080fd5b505afa158015610359573d6000803e3d6000fd5b505050506040513d601f19601f8201168201806040525081019061037d91906108de565b6103bc576040517f08c379a00000000000000000000000000000000000000000000000000000000081526004016103b390610b79565b60405180910390fd5b5050565b60006103d76003548361052d90919063ffffffff16565b9050919050565b600081836103ec9190610caf565b905092915050565b6103fe8282610543565b5050565b5050565b600260009054906101000a900473ffffffffffffffffffffffffffffffffffffffff1673ffffffffffffffffffffffffffffffffffffffff166108fc349081150290604051600060405180830381858888f1935050505015801561046e573d6000803e3d6000fd5b50565b5050565b600073ffffffffffffffffffffffffffffffffffffffff168273ffffffffffffffffffffffffffffffffffffffff1614156104e5576040517f08c379a00000000000000000000000000000000000000000000000000000000081526004016104dc90610b99565b60405180910390fd5b6000811415610529576040517f08c379a000000000000000000000000000000000000000000000000000000000815260040161052090610c19565b60405180910390fd5b5050565b6000818361053b9190610d05565b905092915050565b6105908282600160009054906101000a900473ffffffffffffffffffffffffffffffffffffffff1673ffffffffffffffffffffffffffffffffffffffff166105949092919063ffffffff16565b5050565b6106158363a9059cbb60e01b84846040516024016105b3929190610af3565b604051602081830303815290604052907bffffffffffffffffffffffffffffffffffffffffffffffffffffffff19166020820180517bffffffffffffffffffffffffffffffffffffffffffffffffffffffff838183161783525050505061061a565b505050565b600061067c826040518060400160405280602081526020017f5361666545524332303a206c6f772d6c6576656c2063616c6c206661696c65648152508573ffffffffffffffffffffffffffffffffffffffff166106e19092919063ffffffff16565b90506000815111156106dc578080602001905181019061069c91906108de565b6106db576040517f08c379a00000000000000000000000000000000000000000000000000000000081526004016106d290610bd9565b60405180910390fd5b5b505050565b60606106f084846000856106f9565b90509392505050565b60608247101561073e576040517f08c379a000000000000000000000000000000000000000000000000000000000815260040161073590610b59565b60405180910390fd5b6107478561080d565b610786576040517f08c379a000000000000000000000000000000000000000000000000000000000815260040161077d90610bb9565b60405180910390fd5b6000808673ffffffffffffffffffffffffffffffffffffffff1685876040516107af9190610aa6565b60006040518083038185875af1925050503d80600081146107ec576040519150601f19603f3d011682016040523d82523d6000602084013e6107f1565b606091505b5091509150610801828286610820565b92505050949350505050565b600080823b905060008111915050919050565b6060831561083057829050610880565b6000835111156108435782518084602001fd5b816040517f08c379a00000000000000000000000000000000000000000000000000000000081526004016108779190610b37565b60405180910390fd5b9392505050565b60008135905061089681610fe6565b92915050565b6000815190506108ab81610ffd565b92915050565b6000602082840312156108c7576108c6610e3f565b5b60006108d584828501610887565b91505092915050565b6000602082840312156108f4576108f3610e3f565b5b60006109028482850161089c565b91505092915050565b61091481610d71565b82525050565b61092381610d5f565b82525050565b600061093482610c7d565b61093e8185610c93565b935061094e818560208601610ddd565b80840191505092915050565b61096381610db9565b82525050565b600061097482610c88565b61097e8185610c9e565b935061098e818560208601610ddd565b61099781610e44565b840191505092915050565b60006109af602683610c9e565b91506109ba82610e55565b604082019050919050565b60006109d2601f83610c9e565b91506109dd82610ea4565b602082019050919050565b60006109f5602a83610c9e565b9150610a0082610ecd565b604082019050919050565b6000610a18601d83610c9e565b9150610a2382610f1c565b602082019050919050565b6000610a3b602a83610c9e565b9150610a4682610f45565b604082019050919050565b6000610a5e601f83610c9e565b9150610a6982610f94565b602082019050919050565b6000610a81601983610c9e565b9150610a8c82610fbd565b602082019050919050565b610aa081610daf565b82525050565b6000610ab28284610929565b915081905092915050565b6000602082019050610ad2600083018461091a565b92915050565b6000602082019050610aed600083018461090b565b92915050565b6000604082019050610b08600083018561091a565b610b156020830184610a97565b9392505050565b6000602082019050610b31600083018461095a565b92915050565b60006020820190508181036000830152610b518184610969565b905092915050565b60006020820190508181036000830152610b72816109a2565b9050919050565b60006020820190508181036000830152610b92816109c5565b9050919050565b60006020820190508181036000830152610bb2816109e8565b9050919050565b60006020820190508181036000830152610bd281610a0b565b9050919050565b60006020820190508181036000830152610bf281610a2e565b9050919050565b60006020820190508181036000830152610c1281610a51565b9050919050565b60006020820190508181036000830152610c3281610a74565b9050919050565b6000602082019050610c4e6000830184610a97565b92915050565b6000604082019050610c696000830185610a97565b610c766020830184610a97565b9392505050565b600081519050919050565b600081519050919050565b600081905092915050565b600082825260208201905092915050565b6000610cba82610daf565b9150610cc583610daf565b9250827fffffffffffffffffffffffffffffffffffffffffffffffffffffffffffffffff03821115610cfa57610cf9610e10565b5b828201905092915050565b6000610d1082610daf565b9150610d1b83610daf565b9250817fffffffffffffffffffffffffffffffffffffffffffffffffffffffffffffffff0483118215151615610d5457610d53610e10565b5b828202905092915050565b6000610d6a82610d8f565b9050919050565b6000610d7c82610d8f565b9050919050565b60008115159050919050565b600073ffffffffffffffffffffffffffffffffffffffff82169050919050565b6000819050919050565b6000610dc482610dcb565b9050919050565b6000610dd682610d8f565b9050919050565b60005b83811015610dfb578082015181840152602081019050610de0565b83811115610e0a576000848401525b50505050565b7f4e487b7100000000000000000000000000000000000000000000000000000000600052601160045260246000fd5b600080fd5b6000601f19601f8301169050919050565b7f416464726573733a20696e73756666696369656e742062616c616e636520666f60008201527f722063616c6c0000000000000000000000000000000000000000000000000000602082015250565b7f4b5943206e6f7420636f6d706c65746564207965742c2061626f7274696e6700600082015250565b7f43726f776473616c653a2062656e656669636961727920697320746865207a6560008201527f726f206164647265737300000000000000000000000000000000000000000000602082015250565b7f416464726573733a2063616c6c20746f206e6f6e2d636f6e7472616374000000600082015250565b7f5361666545524332303a204552433230206f7065726174696f6e20646964206e60008201527f6f74207375636365656400000000000000000000000000000000000000000000602082015250565b7f5265656e7472616e637947756172643a207265656e7472616e742063616c6c00600082015250565b7f43726f776473616c653a20776569416d6f756e74206973203000000000000000600082015250565b610fef81610d5f565b8114610ffa57600080fd5b50565b61100681610d83565b811461101157600080fd5b5056fea2646970667358221220fe35586fa7c18758955ce98c1bf84f6802e93be93f95e3f896d54a5d9f547cc964736f6c63430008060033",
  "immutableReferences": {},
  "source": "// SPDX-License-Identifier: MIT\npragma solidity 0.8.6;\n\nimport \"./Crowdsale.sol\";\nimport \"@openzeppelin/contracts/token/ERC20/ERC20.sol\";\nimport \"./KycContract.sol\";\n\ncontract CappaTokenSale is Crowdsale {\n    KycContract kyc;\n\n    constructor(\n        uint256 rate, // rate in TKNbits\n        address payable wallet,\n        IERC20 token,\n        KycContract _kyc\n    ) Crowdsale(rate, wallet, token) {\n        kyc = _kyc;\n    }\n\n    function _preValidatePurchase(address beneficiary, uint256 weiAmount)\n        internal\n        view\n        override\n    {\n        super._preValidatePurchase(beneficiary, weiAmount);\n        require(\n            kyc.kycCompleted(beneficiary),\n            \"KYC not completed yet, aborting\"\n        );\n    }\n}\n",
  "sourcePath": "/Users/zak/Dropbox/dapps/tokenization/contracts/CappaTokenSale.sol",
  "compiler": {
    "name": "solc",
    "version": "0.8.6+commit.11564f7e.Emscripten.clang"
  },
  "schemaVersion": "3.4.1",
  "updatedAt": "2021-07-26T14:18:36.707Z",
  "networkType": "ethereum",
  "devdoc": {
    "kind": "dev",
    "methods": {
      "buyTokens(address)": {
        "details": "low level token purchase ***DO NOT OVERRIDE*** This function has a non-reentrancy guard, so it shouldn't be called by another `nonReentrant` function.",
        "params": {
          "beneficiary": "Recipient of the token purchase"
        }
      },
      "rateOfTokens()": {
        "returns": {
          "_0": "the number of token units a buyer gets per wei."
        }
      },
      "token()": {
        "returns": {
          "_0": "the token being sold."
        }
      },
      "wallet()": {
        "returns": {
          "_0": "the address where funds are collected."
        }
      },
      "weiRaised()": {
        "returns": {
          "_0": "the amount of wei raised."
        }
      }
    },
    "version": 1
  },
  "userdoc": {
    "events": {
      "TokensPurchased(address,address,uint256,uint256)": {
        "notice": "Event for token purchase logging"
      }
    },
    "kind": "user",
    "methods": {},
    "version": 1
  }
}