{
  "contractName": "Crowdsale",
  "abi": [
    {
      "inputs": [
        {
          "internalType": "uint256",
          "name": "rateInit",
          "type": "uint256"
        },
        {
          "internalType": "address payable",
          "name": "walletInit",
          "type": "address"
        },
        {
          "internalType": "contract IERC20",
          "name": "tokenInit",
          "type": "address"
        }
      ],
      "stateMutability": "nonpayable",
      "type": "constructor"
    },
    {
      "anonymous": false,
      "inputs": [
        {
          "indexed": true,
          "internalType": "address",
          "name": "purchaser",
          "type": "address"
        },
        {
          "indexed": true,
          "internalType": "address",
          "name": "beneficiary",
          "type": "address"
        },
        {
          "indexed": false,
          "internalType": "uint256",
          "name": "value",
          "type": "uint256"
        },
        {
          "indexed": false,
          "internalType": "uint256",
          "name": "amount",
          "type": "uint256"
        }
      ],
      "name": "TokensPurchased",
      "type": "event"
    },
    {
      "stateMutability": "payable",
      "type": "receive"
    },
    {
      "inputs": [],
      "name": "token",
      "outputs": [
        {
          "internalType": "contract IERC20",
          "name": "",
          "type": "address"
        }
      ],
      "stateMutability": "view",
      "type": "function"
    },
    {
      "inputs": [],
      "name": "wallet",
      "outputs": [
        {
          "internalType": "address payable",
          "name": "",
          "type": "address"
        }
      ],
      "stateMutability": "view",
      "type": "function"
    },
    {
      "inputs": [],
      "name": "rateOfTokens",
      "outputs": [
        {
          "internalType": "uint256",
          "name": "",
          "type": "uint256"
        }
      ],
      "stateMutability": "view",
      "type": "function"
    },
    {
      "inputs": [],
      "name": "weiRaised",
      "outputs": [
        {
          "internalType": "uint256",
          "name": "",
          "type": "uint256"
        }
      ],
      "stateMutability": "view",
      "type": "function"
    },
    {
      "inputs": [
        {
          "internalType": "address",
          "name": "beneficiary",
          "type": "address"
        }
      ],
      "name": "buyTokens",
      "outputs": [],
      "stateMutability": "payable",
      "type": "function"
    }
  ],
  "bytecode": "0x60806040523480156200001157600080fd5b50604051620013e5380380620013e5833981810160405281019062000037919062000242565b60016000819055506000831162000085576040517f08c379a00000000000000000000000000000000000000000000000000000000081526004016200007c9062000335565b60405180910390fd5b600073ffffffffffffffffffffffffffffffffffffffff168273ffffffffffffffffffffffffffffffffffffffff161415620000f8576040517f08c379a0000000000000000000000000000000000000000000000000000000008152600401620000ef9062000357565b60405180910390fd5b600073ffffffffffffffffffffffffffffffffffffffff168173ffffffffffffffffffffffffffffffffffffffff1614156200016b576040517f08c379a0000000000000000000000000000000000000000000000000000000008152600401620001629062000313565b60405180910390fd5b8260038190555081600260006101000a81548173ffffffffffffffffffffffffffffffffffffffff021916908373ffffffffffffffffffffffffffffffffffffffff16021790555080600160006101000a81548173ffffffffffffffffffffffffffffffffffffffff021916908373ffffffffffffffffffffffffffffffffffffffff1602179055505050506200050a565b6000815190506200020e81620004bc565b92915050565b6000815190506200022581620004d6565b92915050565b6000815190506200023c81620004f0565b92915050565b6000806000606084860312156200025e576200025d620003f0565b5b60006200026e868287016200022b565b93505060206200028186828701620001fd565b9250506040620002948682870162000214565b9150509250925092565b6000620002ad60248362000379565b9150620002ba82620003f5565b604082019050919050565b6000620002d460148362000379565b9150620002e18262000444565b602082019050919050565b6000620002fb60258362000379565b915062000308826200046d565b604082019050919050565b600060208201905081810360008301526200032e816200029e565b9050919050565b600060208201905081810360008301526200035081620002c5565b9050919050565b600060208201905081810360008301526200037281620002ec565b9050919050565b600082825260208201905092915050565b60006200039782620003c6565b9050919050565b6000620003ab82620003c6565b9050919050565b6000620003bf826200038a565b9050919050565b600073ffffffffffffffffffffffffffffffffffffffff82169050919050565b6000819050919050565b600080fd5b7f43726f776473616c653a20746f6b656e20697320746865207a65726f2061646460008201527f7265737300000000000000000000000000000000000000000000000000000000602082015250565b7f43726f776473616c653a20726174652069732030000000000000000000000000600082015250565b7f43726f776473616c653a2077616c6c657420697320746865207a65726f20616460008201527f6472657373000000000000000000000000000000000000000000000000000000602082015250565b620004c7816200039e565b8114620004d357600080fd5b50565b620004e181620003b2565b8114620004ed57600080fd5b50565b620004fb81620003e6565b81146200050757600080fd5b50565b610ecb806200051a6000396000f3fe60806040526004361061004e5760003560e01c80632dff91b91461006a5780634042b66f14610095578063521eb273146100c0578063ec8ac4d8146100eb578063fc0c546a1461010757610065565b366100655761006361005e610132565b61013a565b005b600080fd5b34801561007657600080fd5b5061007f610260565b60405161008c9190610ae3565b60405180910390f35b3480156100a157600080fd5b506100aa61026a565b6040516100b79190610ae3565b60405180910390f35b3480156100cc57600080fd5b506100d5610274565b6040516100e291906109a2565b60405180910390f35b610105600480360381019061010091906107b9565b61013a565b005b34801561011357600080fd5b5061011c61029e565b60405161012991906109e6565b60405180910390f35b600033905090565b60026000541415610180576040517f08c379a000000000000000000000000000000000000000000000000000000000815260040161017790610aa3565b60405180910390fd5b6002600081905550600034905061019782826102c8565b60006101a282610380565b90506101b98260045461039e90919063ffffffff16565b6004819055506101c983826103b4565b8273ffffffffffffffffffffffffffffffffffffffff166101e8610132565b73ffffffffffffffffffffffffffffffffffffffff167f6faf93231a456e552dbc9961f58d9713ee4f2e69d15f1975b050ef0911053a7b848460405161022f929190610afe565b60405180910390a361024183836103c2565b6102496103c6565b6102538383610431565b5050600160008190555050565b6000600354905090565b6000600454905090565b6000600260009054906101000a900473ffffffffffffffffffffffffffffffffffffffff16905090565b6000600160009054906101000a900473ffffffffffffffffffffffffffffffffffffffff16905090565b600073ffffffffffffffffffffffffffffffffffffffff168273ffffffffffffffffffffffffffffffffffffffff161415610338576040517f08c379a000000000000000000000000000000000000000000000000000000000815260040161032f90610a43565b60405180910390fd5b600081141561037c576040517f08c379a000000000000000000000000000000000000000000000000000000000815260040161037390610ac3565b60405180910390fd5b5050565b60006103976003548361043590919063ffffffff16565b9050919050565b600081836103ac9190610b59565b905092915050565b6103be828261044b565b5050565b5050565b600260009054906101000a900473ffffffffffffffffffffffffffffffffffffffff1673ffffffffffffffffffffffffffffffffffffffff166108fc349081150290604051600060405180830381858888f1935050505015801561042e573d6000803e3d6000fd5b50565b5050565b600081836104439190610baf565b905092915050565b6104988282600160009054906101000a900473ffffffffffffffffffffffffffffffffffffffff1673ffffffffffffffffffffffffffffffffffffffff1661049c9092919063ffffffff16565b5050565b61051d8363a9059cbb60e01b84846040516024016104bb9291906109bd565b604051602081830303815290604052907bffffffffffffffffffffffffffffffffffffffffffffffffffffffff19166020820180517bffffffffffffffffffffffffffffffffffffffffffffffffffffffff8381831617835250505050610522565b505050565b6000610584826040518060400160405280602081526020017f5361666545524332303a206c6f772d6c6576656c2063616c6c206661696c65648152508573ffffffffffffffffffffffffffffffffffffffff166105e99092919063ffffffff16565b90506000815111156105e457808060200190518101906105a491906107e6565b6105e3576040517f08c379a00000000000000000000000000000000000000000000000000000000081526004016105da90610a83565b60405180910390fd5b5b505050565b60606105f88484600085610601565b90509392505050565b606082471015610646576040517f08c379a000000000000000000000000000000000000000000000000000000000815260040161063d90610a23565b60405180910390fd5b61064f85610715565b61068e576040517f08c379a000000000000000000000000000000000000000000000000000000000815260040161068590610a63565b60405180910390fd5b6000808673ffffffffffffffffffffffffffffffffffffffff1685876040516106b7919061098b565b60006040518083038185875af1925050503d80600081146106f4576040519150601f19603f3d011682016040523d82523d6000602084013e6106f9565b606091505b5091509150610709828286610728565b92505050949350505050565b600080823b905060008111915050919050565b6060831561073857829050610788565b60008351111561074b5782518084602001fd5b816040517f08c379a000000000000000000000000000000000000000000000000000000000815260040161077f9190610a01565b60405180910390fd5b9392505050565b60008135905061079e81610e67565b92915050565b6000815190506107b381610e7e565b92915050565b6000602082840312156107cf576107ce610ce9565b5b60006107dd8482850161078f565b91505092915050565b6000602082840312156107fc576107fb610ce9565b5b600061080a848285016107a4565b91505092915050565b61081c81610c1b565b82525050565b61082b81610c09565b82525050565b600061083c82610b27565b6108468185610b3d565b9350610856818560208601610c87565b80840191505092915050565b61086b81610c63565b82525050565b600061087c82610b32565b6108868185610b48565b9350610896818560208601610c87565b61089f81610cee565b840191505092915050565b60006108b7602683610b48565b91506108c282610cff565b604082019050919050565b60006108da602a83610b48565b91506108e582610d4e565b604082019050919050565b60006108fd601d83610b48565b915061090882610d9d565b602082019050919050565b6000610920602a83610b48565b915061092b82610dc6565b604082019050919050565b6000610943601f83610b48565b915061094e82610e15565b602082019050919050565b6000610966601983610b48565b915061097182610e3e565b602082019050919050565b61098581610c59565b82525050565b60006109978284610831565b915081905092915050565b60006020820190506109b76000830184610813565b92915050565b60006040820190506109d26000830185610822565b6109df602083018461097c565b9392505050565b60006020820190506109fb6000830184610862565b92915050565b60006020820190508181036000830152610a1b8184610871565b905092915050565b60006020820190508181036000830152610a3c816108aa565b9050919050565b60006020820190508181036000830152610a5c816108cd565b9050919050565b60006020820190508181036000830152610a7c816108f0565b9050919050565b60006020820190508181036000830152610a9c81610913565b9050919050565b60006020820190508181036000830152610abc81610936565b9050919050565b60006020820190508181036000830152610adc81610959565b9050919050565b6000602082019050610af8600083018461097c565b92915050565b6000604082019050610b13600083018561097c565b610b20602083018461097c565b9392505050565b600081519050919050565b600081519050919050565b600081905092915050565b600082825260208201905092915050565b6000610b6482610c59565b9150610b6f83610c59565b9250827fffffffffffffffffffffffffffffffffffffffffffffffffffffffffffffffff03821115610ba457610ba3610cba565b5b828201905092915050565b6000610bba82610c59565b9150610bc583610c59565b9250817fffffffffffffffffffffffffffffffffffffffffffffffffffffffffffffffff0483118215151615610bfe57610bfd610cba565b5b828202905092915050565b6000610c1482610c39565b9050919050565b6000610c2682610c39565b9050919050565b60008115159050919050565b600073ffffffffffffffffffffffffffffffffffffffff82169050919050565b6000819050919050565b6000610c6e82610c75565b9050919050565b6000610c8082610c39565b9050919050565b60005b83811015610ca5578082015181840152602081019050610c8a565b83811115610cb4576000848401525b50505050565b7f4e487b7100000000000000000000000000000000000000000000000000000000600052601160045260246000fd5b600080fd5b6000601f19601f8301169050919050565b7f416464726573733a20696e73756666696369656e742062616c616e636520666f60008201527f722063616c6c0000000000000000000000000000000000000000000000000000602082015250565b7f43726f776473616c653a2062656e656669636961727920697320746865207a6560008201527f726f206164647265737300000000000000000000000000000000000000000000602082015250565b7f416464726573733a2063616c6c20746f206e6f6e2d636f6e7472616374000000600082015250565b7f5361666545524332303a204552433230206f7065726174696f6e20646964206e60008201527f6f74207375636365656400000000000000000000000000000000000000000000602082015250565b7f5265656e7472616e637947756172643a207265656e7472616e742063616c6c00600082015250565b7f43726f776473616c653a20776569416d6f756e74206973203000000000000000600082015250565b610e7081610c09565b8114610e7b57600080fd5b50565b610e8781610c2d565b8114610e9257600080fd5b5056fea2646970667358221220e3e381e06608e8ed6ccf26f5bc5e5c68ab187ccd932b59d43b27589325fdf36564736f6c63430008060033",
  "immutableReferences": {},
  "source": "// SPDX-License-Identifier: MIT\n// SPDX-License-Identifier: MIT\npragma solidity 0.8.6;\n\nimport \"@openzeppelin/contracts/security/ReentrancyGuard.sol\";\nimport \"@openzeppelin/contracts/utils/Context.sol\";\nimport \"@openzeppelin/contracts/token/ERC20/IERC20.sol\";\nimport \"@openzeppelin/contracts/utils/math/SafeMath.sol\";\nimport \"@openzeppelin/contracts/token/ERC20/utils/SafeERC20.sol\";\n\n/**\n * @title Crowdsale\n * @dev Crowdsale is a base contract for managing a token crowdsale,\n * allowing investors to purchase tokens with ether. This contract implements\n * such functionality in its most fundamental form and can be extended to provide additional\n * functionality and/or custom behavior.\n * The external interface represents the basic interface for purchasing tokens, and conforms\n * the base architecture for crowdsales. It is *not* intended to be modified / overridden.\n * The internal interface conforms the extensible and modifiable surface of crowdsales. Override\n * the methods to add functionality. Consider using 'super' where appropriate to concatenate\n * behavior.\n */\ncontract Crowdsale is Context, ReentrancyGuard {\n    using SafeMath for uint256;\n    using SafeERC20 for IERC20;\n\n    // The token being sold\n    IERC20 private _token;\n\n    // Address where funds are collected\n    address payable private _wallet;\n\n    // How many token units a buyer gets per wei.\n    // The rate is the conversion between wei and the smallest and indivisible token unit.\n    // So, if you are using a rate of 1 with a ERC20Detailed token with 3 decimals called TOK\n    // 1 wei will give you 1 unit, or 0.001 TOK.\n    uint256 private _ratePrice;\n\n    // Amount of wei raised\n    uint256 private _weiRaised;\n\n    /**\n     * Event for token purchase logging\n     * @param purchaser who paid for the tokens\n     * @param beneficiary who got the tokens\n     * @param value weis paid for purchase\n     * @param amount amount of tokens purchased\n     */\n    event TokensPurchased(\n        address indexed purchaser,\n        address indexed beneficiary,\n        uint256 value,\n        uint256 amount\n    );\n\n    /**\n     * @param rateInit Number of token units a buyer gets per wei\n     * @dev The rate is the conversion between wei and the smallest and indivisible\n     * token unit. So, if you are using a rate of 1 with a ERC20Detailed token\n     * with 3 decimals called TOK, 1 wei will give you 1 unit, or 0.001 TOK.\n     * @param walletInit Address where collected funds will be forwarded to\n     * @param tokenInit Address of the token being sold\n     */\n    constructor(\n        uint256 rateInit,\n        address payable walletInit,\n        IERC20 tokenInit\n    ) {\n        require(rateInit > 0, \"Crowdsale: rate is 0\");\n        require(\n            walletInit != address(0),\n            \"Crowdsale: wallet is the zero address\"\n        );\n        require(\n            address(tokenInit) != address(0),\n            \"Crowdsale: token is the zero address\"\n        );\n\n        _ratePrice = rateInit;\n        _wallet = walletInit;\n        _token = tokenInit;\n    }\n\n    /**\n     * @dev fallback function ***DO NOT OVERRIDE***\n     * Note that other contracts will transfer funds with a base gas stipend\n     * of 2300, which is not enough to call buyTokens. Consider calling\n     * buyTokens directly when purchasing tokens from a contract.\n     */\n    receive() external payable {\n        buyTokens(_msgSender());\n    }\n\n    /**\n     * @return the token being sold.\n     */\n    function token() public view returns (IERC20) {\n        return _token;\n    }\n\n    /**\n     * @return the address where funds are collected.\n     */\n    function wallet() public view returns (address payable) {\n        return _wallet;\n    }\n\n    /**\n     * @return the number of token units a buyer gets per wei.\n     */\n    function rateOfTokens() public view returns (uint256) {\n        return _ratePrice;\n    }\n\n    /**\n     * @return the amount of wei raised.\n     */\n    function weiRaised() public view returns (uint256) {\n        return _weiRaised;\n    }\n\n    /**\n     * @dev low level token purchase ***DO NOT OVERRIDE***\n     * This function has a non-reentrancy guard, so it shouldn't be called by\n     * another `nonReentrant` function.\n     * @param beneficiary Recipient of the token purchase\n     */\n    function buyTokens(address beneficiary) public payable nonReentrant {\n        uint256 weiAmount = msg.value;\n        _preValidatePurchase(beneficiary, weiAmount);\n\n        // calculate token amount to be created\n        uint256 tokens = _getTokenAmount(weiAmount);\n\n        // update state\n        _weiRaised = _weiRaised.add(weiAmount);\n\n        _processPurchase(beneficiary, tokens);\n        emit TokensPurchased(_msgSender(), beneficiary, weiAmount, tokens);\n\n        _updatePurchasingState(beneficiary, weiAmount);\n\n        _forwardFunds();\n        _postValidatePurchase(beneficiary, weiAmount);\n    }\n\n    /**\n     * @dev Validation of an incoming purchase. Use require statements to revert state when conditions are not met.\n     * Use `super` in contracts that inherit from Crowdsale to extend their validations.\n     * Example from CappedCrowdsale.sol's _preValidatePurchase method:\n     *     super._preValidatePurchase(beneficiary, weiAmount);\n     *     require(weiRaised().add(weiAmount) <= cap);\n     * @param beneficiary Address performing the token purchase\n     * @param weiAmount Value in wei involved in the purchase\n     */\n    function _preValidatePurchase(address beneficiary, uint256 weiAmount)\n        internal\n        view\n        virtual\n    {\n        require(\n            beneficiary != address(0),\n            \"Crowdsale: beneficiary is the zero address\"\n        );\n        require(weiAmount != 0, \"Crowdsale: weiAmount is 0\");\n        this; // silence state mutability warning without generating bytecode - see https://github.com/ethereum/solidity/issues/2691\n    }\n\n    /**\n     * @dev Validation of an executed purchase. Observe state and use revert statements to undo rollback when valid\n     * conditions are not met.\n     * @param beneficiary Address performing the token purchase\n     * @param weiAmount Value in wei involved in the purchase\n     */\n    function _postValidatePurchase(address beneficiary, uint256 weiAmount)\n        internal\n        view\n        virtual\n    {\n        // solhint-disable-previous-line no-empty-blocks\n    }\n\n    /**\n     * @dev Source of tokens. Override this method to modify the way in which the crowdsale ultimately gets and sends\n     * its tokens.\n     * @param beneficiary Address performing the token purchase\n     * @param tokenAmount Number of tokens to be emitted\n     */\n    function _deliverTokens(address beneficiary, uint256 tokenAmount)\n        internal\n        virtual\n    {\n        _token.safeTransfer(beneficiary, tokenAmount);\n    }\n\n    /**\n     * @dev Executed when a purchase has been validated and is ready to be executed. Doesn't necessarily emit/send\n     * tokens.\n     * @param beneficiary Address receiving the tokens\n     * @param tokenAmount Number of tokens to be purchased\n     */\n    function _processPurchase(address beneficiary, uint256 tokenAmount)\n        internal\n        virtual\n    {\n        _deliverTokens(beneficiary, tokenAmount);\n    }\n\n    /**\n     * @dev Override for extensions that require an internal state to check for validity (current user contributions,\n     * etc.)\n     * @param beneficiary Address receiving the tokens\n     * @param weiAmount Value in wei involved in the purchase\n     */\n    function _updatePurchasingState(address beneficiary, uint256 weiAmount)\n        internal\n        virtual\n    {\n        // solhint-disable-previous-line no-empty-blocks\n    }\n\n    /**\n     * @dev Override to extend the way in which ether is converted to tokens.\n     * @param weiAmount Value in wei to be converted into tokens\n     * @return Number of tokens that can be purchased with the specified _weiAmount\n     */\n    function _getTokenAmount(uint256 weiAmount)\n        internal\n        view\n        virtual\n        returns (uint256)\n    {\n        return weiAmount.mul(_ratePrice);\n    }\n\n    /**\n     * @dev Determines how ETH is stored/forwarded on purchases.\n     */\n    function _forwardFunds() internal {\n        _wallet.transfer(msg.value);\n    }\n}\n",
  "sourcePath": "/Users/zak/Dropbox/dapps/tokenization/contracts/Crowdsale.sol",
  "compiler": {
    "name": "solc",
    "version": "0.8.6+commit.11564f7e.Emscripten.clang"
  },
  "schemaVersion": "3.4.1",
  "updatedAt": "2021-07-26T12:16:37.453Z",
  "devdoc": {
    "details": "Crowdsale is a base contract for managing a token crowdsale, allowing investors to purchase tokens with ether. This contract implements such functionality in its most fundamental form and can be extended to provide additional functionality and/or custom behavior. The external interface represents the basic interface for purchasing tokens, and conforms the base architecture for crowdsales. It is *not* intended to be modified / overridden. The internal interface conforms the extensible and modifiable surface of crowdsales. Override the methods to add functionality. Consider using 'super' where appropriate to concatenate behavior.",
    "events": {
      "TokensPurchased(address,address,uint256,uint256)": {
        "params": {
          "amount": "amount of tokens purchased",
          "beneficiary": "who got the tokens",
          "purchaser": "who paid for the tokens",
          "value": "weis paid for purchase"
        }
      }
    },
    "kind": "dev",
    "methods": {
      "buyTokens(address)": {
        "details": "low level token purchase ***DO NOT OVERRIDE*** This function has a non-reentrancy guard, so it shouldn't be called by another `nonReentrant` function.",
        "params": {
          "beneficiary": "Recipient of the token purchase"
        }
      },
      "constructor": {
        "details": "The rate is the conversion between wei and the smallest and indivisible token unit. So, if you are using a rate of 1 with a ERC20Detailed token with 3 decimals called TOK, 1 wei will give you 1 unit, or 0.001 TOK.",
        "params": {
          "rateInit": "Number of token units a buyer gets per wei",
          "tokenInit": "Address of the token being sold",
          "walletInit": "Address where collected funds will be forwarded to"
        }
      },
      "rateOfTokens()": {
        "returns": {
          "_0": "the number of token units a buyer gets per wei."
        }
      },
      "token()": {
        "returns": {
          "_0": "the token being sold."
        }
      },
      "wallet()": {
        "returns": {
          "_0": "the address where funds are collected."
        }
      },
      "weiRaised()": {
        "returns": {
          "_0": "the amount of wei raised."
        }
      }
    },
    "title": "Crowdsale",
    "version": 1
  },
  "userdoc": {
    "events": {
      "TokensPurchased(address,address,uint256,uint256)": {
        "notice": "Event for token purchase logging"
      }
    },
    "kind": "user",
    "methods": {},
    "version": 1
  }
}